:020000021000EC
:10B0000000400020EDE401002DE501002FE50100E6
:10B010000000000000000000000000000000000030
:10B0200000000000000000000000000031E5010009
:10B03000000000000000000033E5010035E50100DC
:10B04000D9C2010037E5010081CB01001DC8010014
:10B0500037E501000000000005C4010037E50100EC
:10B0600037E5010037E5010037E5010037E501006C
:10B0700037E5010037E5010037E5010037E501005C
:10B0800037E50100EDBA010037E5010037E50100C1
:10B09000A9BB010071E80100B1E7010037E501003B
:10B0A00037E5010037E50100000000000000000066
:10B0B0000000000000000000000000000000000090
:10B0C00010B5064C2378002B07D1054B002B02D07E
:10B0D000044800E000BF0123237010BD4822002077
:10B0E00000000000DC0D0200084B10B5002B03D05F
:10B0F0000749084800E000BF07480368002B00D15B
:10B1000010BD064B002BFBD09847F9E7000000006C
:10B110004C220020DC0D0200442200200000000030
:10B12000164B002B00D1144B9D46402292029A1AD6
:10B13000924600218B460F461348144A121A00F01B
:10B1400065F80F4B002B00D098470E4B002B00D01A
:10B1500098470020002104000D000D48002802D06F
:10B160000C4800E000BF00F02DF82000290001F09D
:10B1700057FF00F011F8C046000008000040002012
:10B18000000000000000000048220020982D002050
:10B190000000000000000000084B10B50400002B68
:10B1A00002D0002100E000BF054B1868836A002B25
:10B1B00000D09847200000F031F8C04600000000A1
:10B1C0000408020070B500260C4D0D4C641BA41041
:10B1D000A64209D1002605F009FB0A4D0A4C641B62
:10B1E000A410A64205D170BDB300EB5898470136B4
:10B1F000EEE7B300EB5898470136F2E73C22002017
:10B200003C2200203C220020402200200300821823
:10B21000934200D1704719700133F9E7FEE7C04649
:10B220000378012B01D1014A137070476622002078
:10B23000F0B51D000B0016005A1E93410A225B4216
:10B24000C9B01A4051480F00049201F08DFC00284B
:10B250000DD10400002D48D1002F37D080213B684C
:10B260004B4A490008A804F077FE071E2FDA280091
:10B2700049B0F0BD277001344AE04F9BAB4220D962
:10B280004E9B5E5D3111CAB213003733092900DCD1
:10B29000073B23700F2333401A003732092B01D8A4
:10B2A00030331A006270A77004F02CFE68228019F7
:10B2B0004378934300D12E26019B0135013B1E703C
:10B2C00039E04F9B509AEB1AD65CDBE72F00300039
:10B2D00004F074FE0400C22800D9C22408AB220086
:10B2E000F818310004F02EFEE419519A20279446F4
:10B2F0004F9B63440593049B08AA1B19069308AB54
:10B30000E418069B31339B180293049BE3180393C4
:10B31000039B9C42AED11C00029B01330193029B14
:10B3200011330793059BAB42A7D8019B2770013BC4
:10B330006770A7701F70019B079A01330334019354
:10B340009342EFD10D23029A069E1374033B53746C
:10B35000039B104C3033433632001F7008A9200085
:10B3600004F0F0FDF2B2094E2100300001F08CFB38
:10B37000041E00D07BE7300001F0F6FB002800D06F
:10B3800075E7059B9D42B6D371E7C0464C2000206F
:10B390002808020067220020F0B55D4FC9B03800D0
:10B3A0000C0016001D0001F0DFFB0790002802D002
:10B3B000002049B0F0BD002C00D19CE08021236822
:10B3C000544A490008A804F0C7FD0028F0DB4E9B52
:10B3D0000400062B00D98CE0180004F079F9052A46
:10B3E0003643526376004E9C300004F0E7FD0319AB
:10B3F0000500FF2B05D808AB18192A00310004F00E
:10B40000A1FD002DD4DB80232C195B009C42CFD8FA
:10B41000414D220008A9280004F094FDE2B2290061
:10B42000380001F031FB030058425841C0B2C0E778
:10B430000024802108AB49001819091B2B68320031
:10B4400004F08AFD0500DCE70024802108AB181910
:10B450006B6849000093091B2B68320004F07CFDE7
:10B46000F0E70024802108AB1819AB68490001936C
:10B470006B68091B00932B68320004F06DFDE1E757
:10B480000024802108AB1819EB6849000293AB68CF
:10B49000091B01936B68320000932B6804F05CFD7C
:10B4A000D0E70024802108AB18192B6949000393C9
:10B4B000EB68091B0293AB68320001936B68009341
:10B4C0002B6804F049FDBDE70024802108AB181962
:10B4D0006B69490004932B69091B0393EB683200E5
:10B4E0000293AB6801936B6800932B6804F034FD02
:10B4F000A8E7079D87E74E9B062B89D8180004F024
:10B50000F1F872FF97FFA3FFB0FFBFFFD0FFE3FF8B
:10B510004C2000202808020067220020F0B5174BBD
:10B5200089B01B780600002B04D0154B00201B7837
:10B53000B34221D06A46134B134F23CB23C223CBF4
:10B5400023C203CB03C20823002503933800023330
:10B55000009502936C4601F025FA2A00AE4200D114
:10B560000A4A2100380001F089F9002804D101239A
:10B57000024A1370024B1E7009B0F0BD6522002014
:10B5800064220020080802004C20002021B20100A3
:10B590000048704799B301000048704731B201007C
:10B5A000F7B56B46DD1D00230F00060028002B7049
:10B5B00000F08AFD114AB41C13683B60976851681B
:10B5C000136879180131581CC91AA14211D20024FC
:10B5D000A14209D029260A493B40023389029B0037
:10B5E0003143D31810605960287800F08BFD20009B
:10B5F000FEBD361816600124F6E7C0466823002019
:10B600002F08020010B50120FFF788FF10BD0000D1
:10B61000FF22054B9A6000221A605A608222D200F3
:10B620009850024A99507047682300201404000083
:10B6300070B506000020FFF771FF041E09D1FFF767
:10B64000A7FF0500FFF7A8FF320001002800FFF761
:10B65000DFFF200070BD0000F7B50C4C06000F00A6
:10B66000002001A9A568FFF79BFF00280CD0072147
:10B67000019B0E402B40F60006390233BF023143D6
:10B680009B003943E3185960F7BDC046682300208A
:10B69000F0B5114E85B004000F00012003A90192FE
:10B6A000B568FFF77DFF002814D00723039A1C40DC
:10B6B000E4003A331C4313002B4002330132BF0233
:10B6C0009B001540F318274302355F60AD00019BD6
:10B6D0007619736005B0F0BD68230020F0B5154EF3
:10B6E00085B005000F00022003A900920193B46801
:10B6F000FFF756FF00281BD00723039A1D40ED00DB
:10B700007A331D43130023400233BF029B00F3181A
:10B710002F435F60531C2340023302329B00009989
:10B720001440F31802345960A400019B3619736069
:10B7300005B0F0BD68230020F0B5194E85B00500B6
:10B740000F00032003A900920193B468FFF728FFBC
:10B75000002822D00723039A1D40ED00BA331D4371
:10B76000130023400233BF029B00F3182F435F6096
:10B77000531C2340023300999B00F3185960931C1B
:10B780002340023303329B0001991440F318023422
:10B790005960A4000A9B3619736005B0F0BDC0461D
:10B7A00068230020F0B51D4E85B005000F00042071
:10B7B00003A900920193B468FFF7F2FE00282AD093
:10B7C00007231D400223039AFF33ED001D4313009E
:10B7D00023400233BF029B00F3182F435F60531CCA
:10B7E0002340023300999B00F3185960931C2340B7
:10B7F000023301999B00F3185960D31C2340023394
:10B8000004329B000A991440F31802345960A400D2
:10B810000B9B3619736005B0F0BDC046682300204D
:10B82000034B58681B68C01A43425841C0B2704766
:10B8300068230020F0B58FB0FFF7F2FF030000206F
:10B84000834200D07FE00322544E7768B368791CAE
:10B8500004933B4002339B00F3185D682B001340B8
:10B860003ED0022B00D070E04B1C0593049B059A40
:10B8700019400231890071184B680693AB0D07938C
:10B880002B049B0D9C46049B934301339B00AA0D04
:10B890009A4232D9002B00D17AE00499059ADCB2A1
:10B8A000AB0D0A40191B330003329200B218C9B223
:10B8B0000C3302930092394B394A039101949C58FE
:10B8C00000216346A806069A400FA047AB0D984298
:10B8D00026D1C11C059B8908CC18304B5C602CE03C
:10B8E000AF0D2D04AD0D7F19049B7F183B40023333
:10B8F0009B00F318791C5D68B0E70021AB0D019344
:10B90000049A059BA806134003339B00F318009389
:10B91000234B03910291F458400F6346069AD4E7F3
:10B92000204B80051D40049B000C3B401F001B4B1F
:10B930000237BF000543DF197D60FFF771FF030089
:10B9400001205840C0B20FB0F0BD0024AB0AAF05D3
:10B9500005933F0F08AB0819BC420CD3CC198221C8
:10B96000A806C90000977558400F059A0021A847FE
:10B970000028B2D1E1E7A2009446049A01341040B5
:10B980000230064A80001018624640689850E2E78C
:10B990006A46147F320019000C328AE768230020BF
:10B9A000140400003F00FFFF1FB5002101AA9060B2
:10B9B00003481180516000F005F805B000BDC04695
:10B9C0000140000010B509490120FFF745FEFFF7CF
:10B9D00019FEFFF72FFF0028FBD1BFF34F8F044A5A
:10B9E000044BDA60BFF34F8FC046FDE73A08020010
:10B9F0000400FA0500ED00E030B509494C788A787A
:10BA0000631CDBB29A4200D100230D7800229D42D4
:10BA100004D00370182060434A681218100030BD2B
:10BA200084270020F0B5002785B002ABDD1D009013
:10BA3000280001912F7000F047FB02AB9E1D3000E3
:10BA4000FFF7DAFF0424B84208D06B463C001B79AC
:10BA50000370009B32784360064B5A70287800F0E0
:10BA600051FB002C03D18022034B52035A6020006B
:10BA700005B0F0BD84270020FCE100E0084B094937
:10BA80001A682F23C046C046C046C046C046C046BE
:10BA9000C046C0468A4200D0C046013BF2D1704742
:10BAA0006C2000200024F40080220C4B920270B520
:10BAB000DA678023D2220125094C5B029200A35051
:10BAC000403AA3506560FFF7D9FFA5600024054BFD
:10BAD0001C60FFF7D3FF044B1C7070BD04E100E055
:10BAE000001001409C2700208D27002070B5002405
:10BAF000234B5C649C64DC641C655C609C60214B33
:10BB00001B68A34232D0204A20498D58204A12682F
:10BB1000AD1A2D022D0A1A68AA4214D8AD1AA4181B
:10BB20001A7CDE69002A0CD000221A74194A1268A5
:10BB3000002A1ED0996958699047002801D0FFF764
:10BB400033FF002E13D1144B144A197813788B420B
:10BB500004D10133DBB2022B0FD013701378104ADB
:10BB60009B009C5080220F4B52035A6070BD3300E3
:10BB7000D1E75A6998699047E3E70023EDE7C046AB
:10BB8000FC100140A0270020040500000010014027
:10BB90009C2700208027002098270020992700203C
:10BBA00090270020FCE100E0F0B5C749C74A0B68C8
:10BBB000C7488BB003931478037800229C4200D1CD
:10BBC000BEE00133DBB2022B00D1B7E00370037893
:10BBD000C04A9B009A58039B9B181B021B0A0B60D0
:10BBE000012302930020BC4B060019780191BB4948
:10BBF00009680491597809915968059101999B78D0
:10BC0000009101210693B04B08901B689C46B44BF1
:10BC10001B780793049B009C099DAC4200D091E0E7
:10BC2000AE49002E00D00B60089B002B02D064466A
:10BC3000A54B1C60002803D06846A94B007F1870F4
:10BC4000029B002B00D0A5E0049A0B6800249B1AED
:10BC50005A1E9341DBB20293A04B00261B683500AD
:10BC600004939F4B049A1B780793974B1B6803938D
:10BC700001239C46002C00D0B6E0009B01998B422A
:10BC800000D0D2E0002D03D06946934B097819709B
:10BC9000924B002E00D01A601B68049A9A4202D17F
:10BCA000029A002A45D0002B00D109E11B688D4A79
:10BCB0008D4C0293A558039B8C4EEB1A1B021B0A5A
:10BCC0000333009333780192002B12D18023C13AC1
:10BCD0005B02FF3AA350403AA350C02180220127C3
:10BCE000834B920249005A501A602760FFF7C6FE44
:10BCF0003770029B009A934200D21300A821039A46
:10BD0000C9009B181B021B0A6350019AA258521BC0
:10BD10001202120A5D1B2D0203322D0AAA4208D913
:10BD2000019BE3586350FFF7A9FE8022714B9202FA
:10BD30005A6000226A4B1A700BB0F0BD027046E7E1
:10BD400002924FE71824009D069F6C43059D2C1915
:10BD5000009D0135EDB20095BD4201D10025009551
:10BD60002578022D0AD0032D00D054E7002B00D1F6
:10BD700051E700240E001C74DB69F7E765681F00BB
:10BD80001C00002C00D146E7A54200D1B6E02700F8
:10BD9000E469F6E700210C0008000E004F4B1B6819
:10BDA000002B05D1002900D156E74C4A136053E718
:10BDB0001D68954206D9002901D048490B60AA1A8E
:10BDC0001A6049E7521B4019DD681E60DF69002DCB
:10BDD00007D0DC611C0003999D6009180902090A5B
:10BDE00059603B000299DBE72300E4695968039836
:10BDF0000891081A40490002000A9F6888423DD80D
:10BE00003818186000215960996061461974002142
:10BE1000D9618A4206D018681168884244D8081A45
:10BE20001060DA611A00664624E71821019B594325
:10BE3000059B5918019B0133DBB201930198069BC6
:10BE4000834201D1002301930B786546012B00D07A
:10BE500013E74B681D7C002D00D00EE78868586002
:10BE6000C86898600869D86049699961079900298C
:10BE700002D05D600D00B9E76546B7E70399089801
:10BE8000091A0902090AB94202D27F1A1F60B9E7EA
:10BE900000211960B6E7C01BCF690891002F0DD1B2
:10BEA0001860DF61CB61E5E6110008920F688742F8
:10BEB000F1D33F1A0F600F000899F1E73900F5E759
:10BEC000FFF7F2FD35E7C0469C27002099270020A8
:10BED000982700209027002084270020A0270020FA
:10BEE0008C27002004050000001001408D27002051
:10BEF00000E100E0FCE100E0FEFF7F00BD420AD16E
:10BF0000DB690E00002B06D108489C4681600E00BC
:10BF10000800079108912C68ED69FD61002D00D1A2
:10BF200079E62F683C192C6075E6C0460010014088
:10BF3000F7B5032401900E0015001F0014400720E0
:10BF4000002C32D1002A30D0FFF7AEFD174B8020F5
:10BF50001F60174BC0225D60C525FF211C705C70FF
:10BF60009E70144B40031C60134B52001C70134B0B
:10BF7000AD001C70124B98505A598A431100C022D0
:10BF80000A435A51A122186001990E48D2008150EB
:10BF9000043D5A590C491140C02212020A435A5119
:10BFA0000A4BC25820000A4B1A60FEBD80270020B1
:10BFB00084270020A0270020982700209927002010
:10BFC00000E100E000100140FF00FFFF0405000059
:10BFD0009C27002010B50A4B5C680823002C0CD06D
:10BFE000013B002A09D0002807D000680133047CF7
:10BFF000002C02D1230041744261180010BDC046DC
:10C0000084270020F0B5214F87B07B68050001919F
:10C0100003920824002B35D0002833D0013C04299A
:10C0200030D943690134002B2CD0427C002302918B
:10C03000012A00D0029304AAD61D3000337000F00C
:10C0400043F804AB981DFFF7D7FC0424002810D058
:10C050000123002403700E4A0E4B4560D3588360C1
:10C06000019BC360029B0361039B436104AB9B790B
:10C070007B70307800F046F8002C03D18022064B0C
:10C0800052035A60200007B0F0BDC046842700204C
:10C090000010014004050000FCE100E010B5094B70
:10C0A0005A680823002A0AD0002808D04269002ACA
:10C0B00005D0002302210374FFF7B4FC030018002D
:10C0C00010BDC0468427002070B5EFF3108672B60D
:10C0D000094B0122596800290BD1084C5A60E26FC4
:10C0E000074D2A401A60E5670170002E00D162B644
:10C0F00070BD0270F9E7C046502D002004E100E059
:10C10000FC06FFBC10B5084A5368002B0BD0002872
:10C1100009D1EFF3108372B6044914680C605060C3
:10C12000002B00D162B610BD502D002000E100E0D0
:10C130000023012110B504001C419AB20C4203D126
:10C140000133082BF7D1014A100010BDFFFF00009A
:10C1500070B504AC2578002810D000290ED0002A34
:10C160000CD000246600865B9E4211D10123A340BF
:10C17000DBB2D8438A18C0B2914200D170BD0C78AE
:10C18000002D03D01C430C700131F5E70440FAE7A1
:10C190000134082CE6D1F1E707B500931300012222
:10C1A000FFF7D6FF07BDF0B50B1E0FD00023012609
:10C1B0001C0015002541354205D067005D00CF5BAE
:10C1C0004519AF8001330134082CF2D10360F0BD72
:10C1D000A022034BD205D0588007C00F7047C0463D
:10C1E00004050000A123A0220221DB00D205D150CA
:10C1F00070470000A0220221014BD205D1507047A8
:10C200000C050000A0220221014BD205D15070473D
:10C210000C050000A123A0220221DB00D205D15091
:10C22000704700000221A02210B50C00A120054B90
:10C23000D205D358C0009C430B40034914505350BF
:10C2400010BDC046040500000C050000A02203211B
:10C2500010B5034BD205D150FFF7D4FF10BDC04637
:10C2600004070000094B70B51C00050008340028C5
:10C2700001D010331C002368002B05D01A68280059
:10C2800022605B689847F6E770BDC046A42700208F
:10C2900010B50F4C85202378002B18D16360A36064
:10C2A0002361E3600B4B18680123184002D103217E
:10C2B00000F05CF802F036FA002805D1A3238022B2
:10C2C0000121DB00D205D15001230020237010BDD5
:10C2D000A427002000E100E010B5114B1A68002AE5
:10C2E0000BD00020C2228021186001239200C905D2
:10C2F0008B500C4A5370FFF7B5FF0B4B1A68002A9E
:10C300000CD000221A60C2238022022101209B004F
:10C31000D205D150034B9870FFF7A4FF10BDC04663
:10C3200000010040A42700200401004010B50028AF
:10C3300001D1FFF797FF10BD37B56B46DD1D002318
:10C3400028002B70FFF7C0FE074C2378002B01D18B
:10C35000FFF79EFFE36828780133E3600123A370B1
:10C36000FFF7D0FE37BDC046A4270020F0B58901F5
:10C3700000281DDA0F23C2B21340083B164C9B085D
:10C380009B001B1903242240A240FC3426002140BC
:10C3900096409140DD69B5432943D9611F23C021EF
:10C3A00018401E3B83400D4A490053501360F0BDB6
:10C3B000FF260A4A83089B009B1803223700C025EA
:10C3C0000240D200974031409140AD005C59BC43DF
:10C3D00021435951E2E7C04600ED00E000E100E0F2
:10C3E000A0238000DB05C018E02310B5DB00C25895
:10C3F000034C09042240C250C2581143C15010BD21
:10C40000FFFFFCFFF0B50024C1250122260087B004
:10C410004F4B504850490394AD001F68012F04D181
:10C4200047593A4201D01E601443043352008B42F4
:10C43000F3D14A4B1A68012A0AD100221A608023DC
:10C440001B061C43A022A223D205DB00D358039372
:10C4500023072CD1002C79DA00230493013B002719
:10C460003E00059332003E4B40329C56621C5DD02C
:10C47000E4B2C0222500072095432040BF3A824005
:10C48000E90805A8405C024250D058190130C07F2D
:10C49000A40940B28000C3580193002B21D1032C82
:10C4A00044D104AB5B181878104318701BE0A22726
:10C4B00001260025FF0026420ED0264AAB009A181E
:10C4C000D059D159264A9B58002B05D00322090C7C
:10C4D000C0041140C00E984701357600042DEAD102
:10C4E000B8E7032CDDD02B00A020C133FF33C005FB
:10C4F0009B001B5803A8415C9B039B0F0A4205D07D
:10C50000022B13D1032C0BD1210004E0032B0DD1FE
:10C51000032C05D102212800FFF762FF0137FFB28B
:10C52000019B002B02D02100280098470136042EE1
:10C5300098D1002F0AD0A223A022DB00D205D35825
:10C54000039A934202D00393049B88E707B0F0BD9F
:10C550000061004000600040106100407C610040CC
:10C56000B827002037B5A3236A46DB00C35807323B
:10C57000DBB213700B7F0C7D9C4202D912780C69E0
:10C58000E2540B7F0D7B0133DBB25A1C0B77AA42BE
:10C5900005D28B689A5C084BC25001203EBD0C7DD1
:10C5A000A24201D2CA7EF6E70120AB42F6D3A342F3
:10C5B0009B415842F2E7C0461C050000F7B543799D
:10C5C000060001930198484B44011819057E082084
:10C5D000002D77D1E250A02501230F7B0C78ED05CB
:10C5E0009F4200D96FE0A34040482B5001270B78B1
:10C5F000C133FF339B00EF504C78FF2C68D0A7402D
:10C600003A4BEF5023000327C133FF339B00EF5019
:10C610008B78FF2B5FD0A02500279C46C133FF33CA
:10C620009B00ED055F51CD78FF2D0CD00123A12794
:10C63000AB40A025FF00ED05EB510327CB78C133BC
:10C64000FF339B005F517379274DCF785B01EB1867
:10C650009F760F7833683800A127FF00D851234810
:10C660001C50644604301C508C6821481C50487B88
:10C67000441EA0410C7B022C31D0032C31D0012C64
:10C6800001D1013420431B4C185170794C79400181
:10C690002818C476002A03D0C120042480001C502E
:10C6A000A0200124C0001C50002A04D004200979D5
:10C6B0003056FFF75BFE019B00205B01ED18012364
:10C6C00068762B76FEBDA340A124E4002B518DE7B4
:10C6D000012464429CE701235B429C46A3E70424B7
:10C6E000D0E70624CEE7C046002800200C05000055
:10C6F0002405000054050000F7B5019045793D4E32
:10C700006B01F7187C7EA44660461124002829D1CD
:10C7100098598446002804D00334224201D1133CA6
:10C720007C76F3181C000F000093083449CF49C4ED
:10C730003868206001240220009F009B7E7FA64372
:10C7400086437E779B7EFF2B04D0A0269C402A4BFD
:10C75000F605F450274C6B01002A05D00022E3189F
:10C7600006245A762000FEBD019804270668C220E0
:10C77000800037503700E318FC371A77FA600A79DF
:10C78000002A12D00B681A781C4BF2500A79012A41
:10C790000DD90A685278F2506346002B0ED0C1239F
:10C7A00004229B00F2500024DCE7DA7EECE70A7BEF
:10C7B000012AF1D96A01A218D27EECE76D01631952
:10C7C0000093FB68002BFCD000230099FB60300035
:10C7D000FFF7C8FE0028F4D16419A27E0400FF2AE6
:10C7E000C0D00123A0219340A122C905D2008B50C3
:10C7F000B8E7C046002800200C0500001C0500001A
:10C800001FB502936B4606AC247800911A716946F5
:10C8100000221C73FFF770FF04B010BD002210B59A
:10C820000C4B0D4CDA6021000C48FFF79BFE0028F2
:10C830000FD1A27EFF2A06D00123A0219340A1227E
:10C84000C905D2008B500023201D63762371236815
:10C85000984710BDFC300040002800200030004008
:10C860001FB501236A461370034B1072019168468D
:10C8700006CB904705B000BD20280020F8B51C234A
:10C880000679424C7343E318DB7E0500944608208A
:10C89000002B7AD10868431C0CD00123A1278340C8
:10C8A000A020FF00C005C35103270B68C133FF332D
:10C8B0009B001F504B685A1C06D0A0200027C13394
:10C8C000FF339B00C0051F5028688F69304BC7504D
:10C8D000087D4B7D2F6803432E483B502B682E4824
:10C8E0004A680F681A502D481F500B7D012B21D12B
:10C8F0008B685A1C06D0A0200027C133FF339B0051
:10C90000C0051F50C868431C0CD00123A1278340D9
:10C91000A020FF00C005C3510327CB68C133FF33FC
:10C920009B001F50A1202B68CA688F68C0001A5056
:10C9300008301F501C2362467343E01842600A69A6
:10C94000E2506346002B11D000222B68097FFC3394
:10C950001A622B68FC339A64C1232868104A9B0032
:10C96000C2502B68180B40B2FFF700FDA023042132
:10C970002A68DB00D1501C23002001227343E318F6
:10C98000D87518769875DA769876F8BD2028002044
:10C99000240500006C050000140500000C050000D3
:10C9A00080000200F0B5037985B00193A023002236
:10C9B0000168DB00CA50019B1C325A432D4B9B1867
:10C9C0005B68002B0CD0C2232B4A01689B00CA5025
:10C9D00001220368DB03DB0E9A401300274AD3676A
:10C9E000A126274B01689C46264FF600CA59CB5812
:10C9F000012402938B5965460393A2236442DB0012
:10CA0000CB584C51CC510168A220C0008C510C5025
:10CA1000511C06D0A0210220C132FF329200C9056C
:10CA20005050029A013207D0A0210220029AC90573
:10CA3000C132FF32920050505A1C06D0A02202216F
:10CA4000C133FF339B00D2059950039B013307D0BC
:10CA5000A0220221039BD205C133FF339B009950D2
:10CA60001C22019B5A43034B9B180022DA765A6022
:10CA700005B0F0BD202800208402020004E100E09F
:10CA8000140500000C0500001C23F7B506791700FB
:10CA90005E43334A9619B57D1122002D5DD1B160F8
:10CAA0000121B582B77502680679FC321562026809
:10CAB0007343916001680A00FC321562284AD3185A
:10CAC0009A8A9F68BA5C944664469A8A013292B206
:10CAD0009A82244A8C50596801922A0000293CD13C
:10CAE0009A7D00928022520019009D8A009C143188
:10CAF000A5421DD2016802E09D8A954204D00D0036
:10CB0000FC352D6A002DF7D01D009C8A1435944207
:10CB1000EAD00A000024FC3214622A88BA5C9446E7
:10CB200064462A88013292B22A80019A8C50D9E751
:10CB3000802309885B000F22994208D003681900FE
:10CB4000FC310A6A002AFCD00122DA6000221C2390
:10CB50005E43034B9C190023A3751000FEBDC04625
:10CB6000202800201C0500001C2302795A43034B97
:10CB70009B18987D431E9841C0B270472028002022
:10CB8000C12330B54D4C9B00E25885B04C4D920509
:10CB90004CD5AA6A002A49D000238122AB62C22365
:10CBA00092009B00E250474B9A7E002A01D101324D
:10CBB0006260022269460A709021C9006258684684
:10CBC000625069460392DA7D0A72DA6801920022A5
:10CBD000DA751A7606CB90472B6A002B0FD000220D
:10CBE000384B988A997D2A6288425BD29A8A9968E2
:10CBF000895C9A8A013292B29A82334BE150AB6CD3
:10CC0000002B11D00023AB642E4B9A7E002A01D05A
:10CC100001222260DA7D002A06D00022587EDA75D1
:10CC2000C0B2D968FFF71CFE05B030BDE3585B0702
:10CC3000D2D5EB68002BCFD0A322224BD200D97DD6
:10CC4000002914D1E960A2585A7ED97D9142C3D1FE
:10CC50001A7E002A16D0DA751A69D968DA600022BD
:10CC6000587E1A76C0B25A76FFF7FAFDB4E7002173
:10CC7000E960597ED868A25842545A7E0132D2B235
:10CC80005A76E1E79A7E002A01D101326260812161
:10CC9000C22289009200A1500022587EDA75C0B2EB
:10CCA000D968E1E70029AAD0684601729968027044
:10CCB00001919A7506CB9047A1E7C046002000403D
:10CCC000FC200040202800201C05000070B5704E9C
:10CCD00005003378002B03D000233370FFF792FA5E
:10CCE0000024172D13D8280002F0F2FC0C13133780
:10CCF000495A6C767E837E838C9090909090B1B5EB
:10CD0000BCC3CDCD0024FFF77DFA624B1C70200020
:10CD100070BD0020FFF75CFA002814D00020FFF758
:10CD200069FA022D16D0FA2000015A4B1D706421B9
:10CD300002F0E2FC584B1968414300225748FFF7C4
:10CD400061F90400E3E7FFF74DFAC820022DECD0AB
:10CD50000018EAE7E120C000E7E70020FFF738FA13
:10CD6000002808D00020FFF745FAC82080000322E1
:10CD7000484B1A70DBE7FFF735FAC820F7E70020C9
:10CD8000FFF726FA002806D00020FFF733FAFA2032
:10CD900000010422ECE7FFF725FAC8204000F8E77D
:10CDA0000020FFF715FA002809D00020FFF722FA2B
:10CDB0000522384B1A70384B19684900BDE7FFF758
:10CDC00011FAF5E70020FFF72DFA0622314B1A7011
:10CDD000314B00221968B1E70020FFF703FA072260
:10CDE0002C4B1A70002492E701203070FFF71AFADA
:10CDF000EEE701203070FFF715FA274B196805237D
:10CE000059439AE7FFF706FA0C22E9E7244E30006F
:10CE1000FFF744F904001120401B14D0002C12D15C
:10CE200001280CD0C8256421684302F065FC1A4B28
:10CE30002200196841433000FFF7E4F804000220A3
:10CE4000FFF7D0F963E70220FFF7D4F95FE7FFF7B8
:10CE5000D9F91222C4E7FFF7D5F90020FFF7C2F98C
:10CE60001322BDE7FFF7CEF90120FFF7BBF914222B
:10CE7000B6E7FFF7C7F90020FFF7B4F90120FFF785
:10CE8000B1F91522ACE7FFF7C5F9024B1D70A9E710
:10CE900070280020942800205C280020742800209E
:10CEA0003C28002010B5054B1A680023D20702D594
:10CEB000FFF70CFF0300180010BDC0466C280020CF
:10CEC000072303280CD8012A0CD10022012909D1FB
:10CED00002000E32D2B2032358430C4BC25400233B
:10CEE000180070470129F6D0002909D0022901D085
:10CEF0000723F5E7032343430448C0184270EEE7D5
:10CF0000032343430148C0188270E8E760280020EB
:10CF100010B5012202210020FFF7D2FF002801D026
:10CF2000072812D1072202210120FFF7C9FF00289C
:10CF300001D0072809D100210A220800FFF7C0FF0D
:10CF4000002802D0072800D1002010BD10B50388AA
:10CF5000102B02D0112B22D010BD1C4C20680028B1
:10CF600019D101220100FFF7ABFF002801D00728EB
:10CF700025D1072202210120FFF7A2FF002801D0BE
:10CF800007281CD1042202210020FFF799FF002866
:10CF900001D0072813D1236801332360DCE70B4A53
:10CFA0001368013B1360002BD6D1FFF7B1FF0028B7
:10CFB000D2D0074B1B68002BCED09847CCE7044B50
:10CFC0001B68002BE7D09847E5E7C0469C28002067
:10CFD000982800200323002803D0034B5B6E0360D6
:10CFE000002318007047C046A028002048DF704783
:10CFF000084B09491A68094BC046C046C046C0469E
:10D00000C046C046C046C0468A4200D0C046013B2A
:10D01000F2D170476C2000200024F40050C30000BF
:10D0200010B50020FEF704FB002801D0FEF7BCFC81
:10D030001E490320FEF710FB1D490320FEF70CFBE1
:10D0400000231C4A05211800FEF772FF002801D0BA
:10D05000FEF7AAFCFFF7FAF8052400F01DF900F02E
:10D0600053F900F08DF900F0D7F900F02BFA00F039
:10D0700005FA00F06BF80020FFF7B4F8013CFFF769
:10D08000B7FF0020FFF7B6F8FFF7B2FF002CF2D190
:10D0900000F0DAF9FEF7CEFB0028FBD1FFF7A6FF80
:10D0A0000028F7D0FEF780FCF4E7C04652080200E3
:10D0B0009208020008290020F0B51F4B89B005AC8A
:10D0C0009B6921001D48984702AB0C269E5F1C4DB2
:10D0D0000423E75E0822A35E1A4C03932B78022BED
:10D0E00011D923006A46103303CB03C2E3682068DA
:10D0F0006168A26800F0A6FB182200212000FEF75C
:10D1000085F800232B702B780F495A0004335B00FD
:10D11000A652A218E4186B469B89D780A380039B74
:10D120003200009304203B00FEF706FB2B7801330E
:10D130002B7009B0F0BDC04670200020642D002087
:10D1400080290020782D0020C008020070B5194AFF
:10D1500019490320FEF79CFA332300250126174CBA
:10D16000174923701A3B174AE3702161164B174980
:10D17000A360667022C325716571A671E571E260D6
:10D180001368200098472900200002F0D4F8A84234
:10D1900006D10F493000FEF75FFA3500280070BD58
:10D1A0000C4A31000C48FEF715FF0028F6D0FEF7B8
:10D1B000FBFBF3E7AD080200DE080200642D00204F
:10D1C000C020002070200020582D0020602D00205D
:10D1D000E9080200B9D001000409020010B50022DC
:10D1E00002490348FEF70EFF10BDC0468F02000043
:10D1F0008429002010B5182200210548FEF706F802
:10D200000022044B04481A70FEF748FF10BDC046C8
:10D21000782D0020802900208429002076DF7047A7
:10D2200078DF70477ADF70477CDF7047A8DF704790
:10D2300067DF7047704710B5FEF7B6FB10BD000002
:10D2400010B50378002B08D1044B3B211888FFF759
:10D25000E5FF002801D0FEF7A7FB10BD902D0020B0
:10D2600010B50A4A04000A490320FEF711FA032CFC
:10D270000AD120000749FEF7EFF90220FFF712FE5E
:10D28000002801D0FEF790FB10BDC04673090200D4
:10D2900095090200A10902007FB5174A174903202A
:10D2A000FEF7F6F900236A466946137010228B7068
:10D2B0004A70CB70D0221249684601F039FA002832
:10D2C00001D0FEF771FB01AA0121002001F080FAD4
:10D2D000002801D0FEF768FB01A801F091FA0028B0
:10D2E00001D0FEF761FB074801F058FA002801D091
:10D2F000FEF75AFB07B000BD1909020095090200AC
:10D30000A42900209DD5010030B51A4A85B01A49DC
:10D310000320FEF7BDF91123184D01AC280023703E
:10D3200002F04CFE290082B22000FFF77DFF0028AA
:10D3300001D0FEF739FB0020FFF772FF002801D073
:10D34000FEF732FB02AC082200212000FDF75EFF51
:10D3500028232380103363800023A3809133FF337D
:10D360002000E380FFF75EFF002801D0FEF71CFBE2
:10D3700005B030BD28090200950902008E0902009F
:10D3800070B506269CB01E4A1E490320FEF780F9A0
:10D390001D4B02AD0DAC2B801C4B00213C2220000C
:10D3A0000493AE80FDF732FF01230021A37020001B
:10D3B000DB182370E670656200F0D8FC002801D00D
:10D3C000FEF7F2FA05AD182200211148FDF71EFF05
:10D3D000202200212800FDF719FF0123EB70FA231A
:10D3E00000219B002B6169610A4B00912A002000FB
:10D3F00000F0F0FC002801D0FEF7D6FA1CB070BD9A
:10D400003809020095090200070500005420002099
:10D41000742A002061D2010010B507490320074A91
:10D42000FEF736F90649074800F0DCFE002801D077
:10D43000FEF7BAFA10BDC04695090200490902007C
:10D4400035D201008C2A002010B50320094A0A4970
:10D45000FEF71EF9032000F079FD002801D0FEF749
:10D46000A3FA0220FFF71EFD002801D0FEF79CFA68
:10D4700010BDC046530902009509020010B588B0DE
:10D4800001AC1C2200212000FDF7C0FEA022920268
:10D490006260F02200231203A2600322019323742E
:10D4A000064B20006361064B2273A36100F018FF56
:10D4B000002801D0FEF778FA08B010BD41D2010073
:10D4C00037D2010010B5044A04490320FEF7E0F802
:10D4D00000F002F910BDC04665090200950902007E
:10D4E0001FB503880400112B27D004D8022B2ED09F
:10D4F000102B13D01FBD512B2FD0552B25D03A2BDD
:10D50000F8D121490420FEF7A7F8A0881321FFF7DE
:10D5100085FE0028EED0FEF747FAEBE703201B4913
:10D52000FEF79AF80720FFF7BDFC002801D0FEF7B0
:10D530003BFAA288164B1A80DCE7027A15490320D1
:10D54000FEF7A6F801225242F4E71349DAE7104B3E
:10D5500000211888FFF76CFEDBE78379002BC9D028
:10D56000827B043A022AC5D8022B0AD16A4613707C
:10D57000C1236A465B009380A0886946FFF756FE88
:10D58000C7E70123F2E7C046EC090200BA0902002E
:10D59000902D0020CC0902000A0A020010B50400F8
:10D5A00003880C4A0C490320FEF798F8200000F08D
:10D5B00025FF200000F0CCFE2000FFF7C7FC200074
:10D5C000FFF78EFF200000F0EBF8200000F0D4FD04
:10D5D00010BDC046080902007E090200A0DF7047A6
:10D5E000A2DF7047A6DF704763DF7047F0B599B0E0
:10D5F00007931EAB1C781FAB1B8811AF05900691DB
:10D60000049200211C223800039309AEFDF7FEFDB1
:10D61000142200210CA8FDF7F9FD0AAD0322002118
:10D620003000FDF7F3FD032200212800FDF7EEFD99
:10D63000012102230A00B3700E331A4323000B406A
:10D640008B407270327062080A40D200A008134307
:10D650000840E20880000A402409120103430C40FC
:10D66000134364011C4330233C701C4200D07E6194
:10D670006B461B7F0BA98B706B461B8A01220B80AC
:10D6800010231800AB781043053293431A0004238B
:10D690001343AB706B469B890CAA93816B469B89A5
:10D6A00028701381209B68700C91136111A9219B34
:10D6B00006985560FFF794FF0400039B049A0193BA
:10D6C000059B0449009303000320FEF76BF820003C
:10D6D00019B0F0BD360B020030B5214A89B021499E
:10D6E0000320FDF7D5FF012201201F4B52421F4CA2
:10D6F0001A801F491F4B220088700B80FFF76EFFB6
:10D70000002801D0FEF750F91B49102204A802F0AE
:10D7100019FC1A4D04A82900FFF766FF002801D064
:10D72000FEF742F9164A2B7821880392154A1648CB
:10D730000292012201920B320092144AFFF756FF27
:10D74000134A2B7821880392124A13480292182216
:10D750000192103A0092114AFFF748FF09B030BD1C
:10D76000380A0200DE0802005A200020CA2A0020DF
:10D77000CC2A00200098FFFF280A0200D02A0020AF
:10D78000A82A0020C82A00208B0A02000198000065
:10D79000A02A0020B02A0020920A0200029800006D
:10D7A00070B503880400112B0FD002D8102B07D0BE
:10D7B00070BD502B0FD0194A532BF9D1184917E0DF
:10D7C0008288184B1A80184AF8E70122154B5242FA
:10D7D0001A80164AF2E7164A11490420FDF758FF4D
:10D7E000144AE3881288A51D9A4205D12A7B124962
:10D7F0000420FDF74DFFDBE7104A92889A42D7D10B
:10D800002A7B0F490420FDF743FF2B7B002B02D01E
:10D81000FFF7E4FCCCE7FFF7EDFCC9E7720A020072
:10D82000A50A02005A2000204C0A0200570A0200F2
:10D83000650A0200A82A0020B10A0200A02A0020DE
:10D84000F30A020084B0F0B58DB015936B4618272B
:10D850001E2612901391149212AA23CA23C323CA1C
:10D8600023C3134A13490420FDF712FF124D08ACDD
:10D870003A006946280002F065FB6E441022002140
:10D8800020003780FDF7C2FC0C4B21001B88A660EE
:10D8900023800123A3700023A380094BE56018882F
:10D8A000FFF7A0FE0DB0F0BC08BC04B01847C0469E
:10D8B000790A0200A50A0200B02A0020A02A00204E
:10D8C0005A20002071DF704772DF704779DF7047A0
:10D8D0007DDF704765DF7047F0B5002506002F003B
:10D8E00089B001930EAB10CB04911B880392059372
:10D8F0002388029333889F420FDB0020854248D063
:10D900002388029A013B9B1A9BB20C30FF2B40D814
:10D91000019A0299002053543BE07368B9005918EA
:10D92000042207A802F00EFB06AB0022D91C07A8B0
:10D93000FFF7D0FF00282CD106ABDB78039A934287
:10D9400024D169426941238849009A1852180599DF
:10D950008A421DDC002D09D169460133019A097CF8
:10D960009BB22380D154238801332380019B2288DA
:10D9700007A89A1806ABDD1C2900FFF7ABFF0028AB
:10D9800007D12B78012522889B1823800137B1E726
:10D990000C2009B0F0BDF0B51D0085B00AAB40CB3E
:10D9A00003921F880222019700962B000400FFF7C4
:10D9B00093FF002807D1019700962B0010220399AE
:10D9C0002000FFF789FF05B0F0BD0000F0B5138817
:10D9D00087B002930023138003002D331B780700C8
:10D9E0000D001400002B2AD0029B0C20082B00D81D
:10D9F0001EE104AE3000FFF765FF002800D017E1FC
:10DA0000082209212388EA542388133201339BB268
:10DA10002380EA54208802AB013080B22080153A7E
:10DA2000C918281802F08EFA2388327806339BB280
:10DA30002380002A33D1EA54238801332380BB7822
:10DA4000002B22D02388029A04330C20934200D961
:10DA5000EEE004AE3000FFF739FF002800D0E7E029
:10DA600003222388EA542388163201339BB2238091
:10DA7000EA542388328801339BB22380EB181A7052
:10DA8000120A5A70238802332380FA78002A18D0A9
:10DA900023880298D91C814203D90C20C8E00122B6
:10DAA000C9E70221E9542388013901339BB223805D
:10DAB000E95423885B189BB22380EA5423885B18BF
:10DAC00023807A68002A16D023880298D91C8142C4
:10DAD000E3D802211278E9542388083101339BB23C
:10DAE0002380E954238852B201339BB22380EA5445
:10DAF0002388013323803B89002B00D08BE03B8AB5
:10DB0000002B0CD03800029B0094019307222B00BD
:10DB100003211030FFF73FFF002800D088E03B8B47
:10DB2000002B0CD03800029B0094019315222B008F
:10DB300014211830FFF72FFF002800D078E03B6A4F
:10DB4000002B00D076E07E6A002E2CD0B38821888E
:10DB5000981C8A1C12189446029A94459DD8FE2857
:10DB60009BD8FF2203336B54238801339BB223805D
:10DB7000EA54238801339BB223803288EB181A7051
:10DB8000120A5A702088023080B22080B288002A9F
:10DB900009D0B168002956D0281802F0D3F923889B
:10DBA000B2889B1823803B002C331B78002B00D0BD
:10DBB0007FE03B78181E3BD03A880720012A37D0F7
:10DBC00022880299901C884200D966E7012B06D171
:10DBD0007B78029902339B18994200D25DE7029E3E
:10DBE0002818023EB61AB3B202936B4604AE1B89E4
:10DBF00031003380FFF76CFE002819D13B78022BEF
:10DC000000D093E03388029909228B4200D897E034
:10DC10006B461B8992E03800029B00940193062218
:10DC20002B0002210830FFF7B6FE002800D166E77E
:10DC300007B0F0BD26880299B21D8A4200D92CE7B0
:10DC40001988052901D80720F2E7454A45488A186E
:10DC500092B284468242F6D95A88052AF3D94048BE
:10DC6000101880B26045EED93F48814203D082420D
:10DC700001D09142E7D805221221AA55228801320B
:10DC800092B22280A9542288013292B2228019884D
:10DC9000AA181170090A51702288023292B22280A9
:10DCA0005988AA181170090A5170238802332380F9
:10DCB00049E7BB6A002BC6D0002303933B002C33FB
:10DCC0001B78039A934200D873E70C26039B5E43AC
:10DCD000BB6A9E19B3889A1CFE2A00D9DDE6228809
:10DCE0000333AB541622238801339BB22380EA54BA
:10DCF000238801339BB223803288EB181A70120AF2
:10DD00005A702088023080B22080B288002A09D060
:10DD1000B168002997D0281802F014F92388B28836
:10DD20009B182380039B0133DBB2C6E7012B00D095
:10DD30006EE77B78029A9A4200D269E70822338024
:10DD40003188FE2900D9A8E623880131E9542388C7
:10DD500001339BB22380EA5423885918218067E756
:10DD60007FF3FFFF7DF30000FFFF0000F0B593B0ED
:10DD70006A461F2301AE971D0D0033803B800028AB
:10DD800005D0C3785B071AD4072013B0F0BD040098
:10DD90003080002D0BD0EB78002BF5D13A000AA98A
:10DDA0002800FFF713FE0AAA002802D0EDE72A0098
:10DDB0003D803B7831782000FFF786FDE5E73200B3
:10DDC00002A9FFF703FE02AC0028E2D0DDE773DF13
:10DDD00070470000F8B59C4604000E000E20002C91
:10DDE0006BD0002A69D0002548490D380870484892
:10DDF00048490D70010089CA89C189CA89C109CA07
:10DE000009C16346444A29001360444B069A4448BA
:10DE10001A600122434B52421A800832FDF7F6F98C
:10DE2000414F29003C223800FDF7F0F92378220009
:10DE30003B70A3781032BB70E378FB7063787B7023
:10DE40003B00103303CA03C33B00103A083303CA34
:10DE500003C33B000832183303CA03C3636AAB42EF
:10DE60002CD1A36A002B39D1236A002B06D02F4B6B
:10DE70003B62226A5188598012881A806368002B9D
:10DE800000D07B602A4A00239446072529492A00AE
:10DE90005A430C689800624401330251082BF6D1B2
:10DEA000002325489A008C688218E2500433202B06
:10DEB000F8D131003800FFF759FFF8BD1F4B20485B
:10DEC0007B62626A986011881980918899808D427E
:10DED000C7D293685B5D43550135F8E7194B1A4883
:10DEE000BB62A26A98609188998015881D80002382
:10DEF0008B4206D323002C331A783B002C331A7044
:10DF0000B2E79568ED5CC5540133F1E73C2B002086
:10DF1000D42A0020D22A0020382B0020342B0020C5
:10DF2000A92B0020322B0020F42A0020DC2B00201B
:10DF3000E02B00205C200020182C00205C2B00200F
:10DF40003D2B0020B02B0020BC2B0020F0B57D4BDA
:10DF500089B01B78050001930826002B0BD07A4F5F
:10DF6000387002A8FFF736F8029E002E06D0012274
:10DF70000026764B1A70300009B0F0BD0722310040
:10DF80007348FDF743F9734C734B22681A4202D071
:10DF90003B78012B05D0A378002B0BD03B78022BCC
:10DFA00008D16E4B6E4A1B68002B13D0012108204C
:10DFB000117098470123664AD25C002A03D10133CD
:10DFC000072BF8D10192681E03283FD801F080FB8F
:10DFD000040A11151370EDE76378002B02D0019B42
:10DFE000002B0ED1A378002B03D0019B0225002B20
:10DFF00007D1E3780325002B03D125796B1E9D41C2
:10E00000AD00564B3D701A68564B002A20D0033D98
:10E01000012D1DD8217800291AD0534909780029EB
:10E0200016D101310720197090471822002102A84B
:10E03000FDF7ECF80023387802AA13701372042855
:10E0400013D801F045FB74081E2C51000025D8E7B9
:10E0500000221A70E9E70123444A13703C4A0392F4
:10E0600002AA13700023538213823B78002B61D1E4
:10E070003A4B1B68002B00D17DE73C4A107898474B
:10E0800079E70222394B1A70314B02AA039301231C
:10E0900013701300A2895A82A36802AAE4E7228AB5
:10E0A00002AB1A82A28A5A822378002B1AD02E4BF6
:10E0B0001B78002B16D12E4B1A79002A02D11A7B1D
:10E0C000002A0FD00593022302AA2A4813720021C6
:10E0D000DB18C370FFF74AFE05220028C5D1234B89
:10E0E0001A70C2E70322FAE7228B02AB1A82A28BD4
:10E0F0005A822378002B18D01B4B1B78002B14D18D
:10E100001B4B1A79002A02D11A7B002A0DD00593E5
:10E11000022302AA174813720021DB18C370FFF70D
:10E1200025FE06220028DAD09FE70422D7E70F4A0F
:10E1300013709AE702A8FFF74AFE002898D006005D
:10E1400019E7C0463C2B0020D22A0020302B0020AB
:10E15000A92B0020D42A002000FFFF00382B00202C
:10E16000A82B0020982C0020992C0020D12A0020D8
:10E170005C200020F42A002010B50388112B0AD05F
:10E180001B2B1BD0102B05D1837D012B02D1828844
:10E19000104B1A8010BD00210F4A838811700D4A60
:10E1A000012012889A42F5D1FFF7D0FE0028F1D065
:10E1B0000A4B1B68002BEDD09847EBE7037A002B46
:10E1C000E8D1074B05211878013001F005FCC8B2F1
:10E1D000EAE7C046322B0020992C0020342B002087
:10E1E000D22A00200020704775DF704776DF704725
:10E1F0007ADF70477BDF704713B5164B1888164BD4
:10E20000984211D0154A164C13780133DBB21370C3
:10E21000217B994209D31349FFF7E6FF002803D079
:10E22000A369002B00D0984713BD00231370237CF3
:10E23000002B08D03B21FFF7D9FF002803D0A369AA
:10E24000002B00D098476369002BEDD0002201A875
:10E250000270E8E79C2C0020FFFF0000EC2C00205F
:10E26000A02C0020E42C002037B5174B174A5B8800
:10E270001188174C174D994211D852889A420ED3E3
:10E280006369002B1DD001A8012204E06369002B03
:10E2900017D0002201A8027012E0A16807E02B78D5
:10E2A000002BF3D10C4B1B78002BF6D161680022B8
:10E2B0000A48FDF7A7FE002803D0A369002B00D071
:10E2C000984700232B7037BDDC2C0020E42C002065
:10E2D000A02C00209A2C0020EC2C0020BC2C00202C
:10E2E000144902000B0070B532CA32C332CA32C3BD
:10E2F0001268114C1A600022104B01681A7091428A
:10E3000014D00832200001F01DFE2000FFF770FF3E
:10E3100000280AD101220021094B52421A80094BE0
:10E32000094A0A481970FDF755FE70BD2000FFF735
:10E3300061FFEDE7A02C0020E42C00209A2C0020A7
:10E340009C2C0020EC2C0020F9E10100740B020051
:10E3500010B50388112B2ED002D8102B18D010BD69
:10E36000122B3AD0502BFAD11F4CC188E28991422E
:10E37000F5D1038A022BF2D1123000F0B3F8002855
:10E3800016D11A48FDF78AFE0028E8D0A36920E0DC
:10E3900001008288164B18311A801648082201F0B5
:10E3A000D1FD0022144B1A700F4BDB899342D6D15A
:10E3B000FFF75AFFD3E701220D4B52421A80002289
:10E3C0000D4B0A481A70FDF769FE0028C7D0064BAE
:10E3D0009B69002BC3D09847C1E701000822083190
:10E3E000044801F0AFFDE3E7A02C0020BC2C002086
:10E3F0009C2C0020DC2C0020EC2C0020F0B50388A5
:10E400008BB00500112B46D01A2B4BD0102B32D1DC
:10E41000324C05A8637D227D211D9A43FDF7C3FE82
:10E420000026059B03939E4227D3207DAF88C043DF
:10E43000C0B2FDF77DFE2A4B98424BD02100400030
:10E44000261D20188780153101233A003000FDF782
:10E45000A3FE21003A00143101233000FDF79CFE99
:10E46000AB7D2100023B5A4253413000AA88DBB207
:10E470001631FDF791FE0BB0F0BD730005AAD3185D
:10E48000210000229B8814310092201D1D32FDF7CF
:10E490005FFE0136C5E78288104800230100043082
:10E4A0001531E6E71F23027A0C4C93429B41210071
:10E4B0005B428288DBB21731201DFDF76DFE2F23F2
:10E4C0002A7A210093429B415B42DBB2AA88183131
:10E4D000201DCEE70420FDF767FACCE7F02C0020E2
:10E4E000FFFF0000012300781840704703210A480D
:10E4F00002680A430260094802680A430260084948
:10E50000084A094B9B1A03DD043BC858D050FBDC7A
:10E5100000F012F8FCF704FE24050040540500400A
:10E52000E80D0200E81F002048220020FEE7FEE779
:10E53000FEE7FEE7FEE7FEE710B52D4B1A78012A4D
:10E540000FD12C4A126812070BD12B4AE024116814
:10E55000F02208001040214227D1284909681142C1
:10E5600026D01A78012A0DD122490968090709D154
:10E57000F020214909680140402903D11F49096859
:10E5800001422ED01B68DBB2012B0DD1194B1B6849
:10E590001B0709D1184B1A68F0231A40A02A0FD183
:10E5A000164A12681A420ED010BD3028D5D0D8E7CE
:10E5B0001349144A11608021134A09021160D0E7FF
:10E5C000D02AF1D1ECE7114B1A68012A03D1C022FD
:10E5D0000F4B1A60E8E70F4A1A601A68012AFCD14B
:10E5E000F5E7C1218020C900C0054250CAE7C046F6
:10E5F000E00F00F0E40F00F0E80F00F0EC0F00F087
:10E60000DFFF07C004050040186C004000EC064026
:10E6100014EC06407593000052DF704710DF70471E
:10E6200060DF704761DF704710B5FDF7CBF910BDB3
:10E63000C5230A499B00CB585B0206D4084803E077
:10E64000002011680B43136070478023054ADB03E9
:10E6500050680028F4D10B60F6E7C04600E100E006
:10E6600002200000502D0020F0B5284B85B01F7807
:10E67000FFB2002F44D0264E346863425C41002331
:10E68000E4B2002B21D1234B1B78002B38D103A8F7
:10E69000FFF7C2FF052835D0002808D0FDF784F920
:10E6A000002C15D03D00002423002C00E9E703983E
:10E6B000FDF73CFE184B1B68002BF1D003989847E0
:10E6C000EEE7019833689847EEE7002C18D11C005C
:10E6D000104B1D78EDB2002D12D1104B03A91B88F1
:10E6E0000B800F4B1B6818000193FFF79BFF052859
:10E6F00004D00028E5D0FDF757F9D5E7002CD1D09C
:10E7000005B0F0BD002CFBD13C00E1E7302D00202E
:10E71000282D0020312D0020342D0020242D002014
:10E72000382D0020014B1878C0B27047302D0020E2
:10E7300070B506000720002918D08C0716D11048A4
:10E74000104C016010490A80104A136001232568AB
:10E750001D4001D00E4AD3670E493000FFF75EFF1F
:10E76000002804D0002D01D00123236070BD0122B8
:10E77000094B1A70FDF7E0FDFFF75AFFF6E7C046B8
:10E78000382D002000E100E0242D00202C2D002059
:10E7900004E100E029E60100302D00200E230028CE
:10E7A00002D0024B1860002318007047282D00206B
:10E7B00010B5064B1B68002B05D09847002801D0E8
:10E7C000FDF7F2F810BDFFF74FFFFBE72C2D0020FF
:10E7D00070B5140005000E00142200212000FCF783
:10E7E00015FD002201232261227B23809A4322739C
:10E7F00026726572002D00D0A372002070BD00004B
:10E8000013B50400154B16490193019A0420009298
:10E81000FCF73EFF20006946FFF702FF009A019BCC
:10E8200004009A4213D00F490220FCF731FF8023E5
:10E830005B05996B5A6B009B4A43D21A80230220D6
:10E840009B050949D218FCF723FF200016BD0028BC
:10E85000FBD0020005490120F5E7C046E81F002073
:10E86000780B0200A50B0200E70B02001A0C020055
:10E87000012010B5044B1A7850401870034B1B68E8
:10E88000002B00D0984710BD402D00203C2D0020CB
:10E8900010B5012300F07CFC43425841C0B210BDCA
:10E8A00073B56B46DC1D00230E002370220001337C
:10E8B0002221050000F06CFC03000120002B0CD08D
:10E8C00086420BD10223227813432370217828003B
:10E8D00000F0A0FD43425841C0B276BD002EFCD1ED
:10E8E000022223789343F0E773B56B460025DC1DC5
:10E8F0000E002100DD7100F0DAFE0123A84202D0F3
:10E90000237833802B00180076BD10B50A00402113
:10E9100000F0A9FE43425841C0B210BD10B50A0034
:10E92000082100F073FE43425841C0B210BD07B544
:10E9300013006A4607321370012300F030FC434293
:10E940005841C0B20EBD10B50B78013B5A425A4136
:10E950004B788978013B5C42634101395B0013438A
:10E960004A4251418900194300F038FD4342584161
:10E97000C0B210BD37B56B46DD1D0C00290000F09C
:10E980001CFD03000120002B0AD02B781A00024046
:10E9900022705A089B080240034000206270A37056
:10E9A0003EBD70B50D1C80210400C905281C01F076
:10E9B00035F8002188420FD18121281CC90501F0BA
:10E9C0002DF80121002807D18221281CC90501F05A
:10E9D00025F8414241410231200000F02EFC434223
:10E9E0005841C0B270BD030010B5012004290CD8F5
:10E9F000080000F06DFE0F03030B0D00012118004D
:10EA000000F01BFC43425841C0B210BD0221F6E7A2
:10EA10000321F4E70021F2E737B56B46DD1D0C005A
:10EA2000290000F0F9FB012300280AD028780328E8
:10EA30000FD800F04DFE02080A0C8023DB0523608E
:10EA4000002318003EBD8123F8E78223F6E78323E5
:10EA5000F4E7014A2260F4E7000080BFF7B56B4697
:10EA60009E1D0C003100070000F03CFC002801D185
:10EA700001201CE06B46DD1D2900380000F0CCFBB6
:10EA80000028F5D03378012B24D0002B04D0022BA2
:10EA900013D0194B2360EBE728780328F9D800F04E
:10EAA00017FE0207130AFE239B0500202360FEBD0C
:10EAB0008023DB05F9E7114BF7E728780328E8D82E
:10EAC00000F006FE02040F068123F2E78223F0E73E
:10EAD0000B4BEAE7287803280BD800F0F9FD020475
:10EAE00006088323E5E78423E3E78523E1E7054B75
:10EAF000DBE7014A2260BBE7000080BF0000404125
:10EB00000000404200004043F7B56B46DF1D0E1C7D
:10EB10003900050000F0E6FB0124002836D0254925
:10EB2000301C00F07BFF002832D0FE21301C89050C
:10EB300000F074FF2100002822D11F49301C00F092
:10EB40006DFF022100281BD11C49301C00F066FF1C
:10EB50000321002814D11A49301C00F05FFF042162
:10EB600000280DD11749301C00F058FF052100285E
:10EB700006D11549301C00F051FF41424141063198
:10EB8000280000F02DFB44424441E4B22000FEBDC9
:10EB90003B78012B05D0002B01D0022BF6D10921A7
:10EBA000EEE70A49301C00F039FF4142414108318B
:10EBB000E6E7C0460000C843000020410000C8410D
:10EBC000000048420000C842000048430080CA4498
:10EBD00010B5837904000020012B0AD0A36820001F
:10EBE0001B681968FFF790FF012802D0012300205D
:10EBF000A37110BDF7B56B469D1D0C0029000700E1
:10EC000000F070FB002801D1012014E06B46DE1DEE
:10EC10003100380000F0D4FA0028F5D03078092807
:10EC20001ED800F055FD05090C0E10121416181D03
:10EC3000002300202360FEBDFE239B05F9E70A4B5D
:10EC4000F7E70A4BF5E70A4BF3E70A4BF1E70A4B04
:10EC5000EFE70A4BEDE72B78012B01D1084B23603E
:10EC6000084B2360D0E7C046000020410000C841A7
:10EC7000000048420000C842000048430000C8436A
:10EC80000080CA44000080BF7FB5060002AD0C00C2
:10EC9000062200212800FCF7B9FA2900300000F014
:10ECA00004FB002801D1012037E06A782B7812029A
:10ECB0009B182380EA78AB7812029B1863806A79EC
:10ECC0002B7912029B18A3806B46DD1D29003000B2
:10ECD00000F008FB0028E6D0287801281FD0002883
:10ECE0000FD00228DFD10022A35E9B1123800222D5
:10ECF000A35E9B1163800422A35E9B11A38000206E
:10ED00000BE00022A35E1B1123800222A35E1B11D5
:10ED100063800422A35E1B11A38004B070BD012395
:10ED2000E35623800323E35663800523E356E5E798
:10ED300013B50C006946FFF7A7FF012809D06B4601
:10ED40001B88002023806B465B8863806B469B8812
:10ED5000A38016BD7FB5002302AC0D002100060084
:10ED60000193FFF791FF012802D1012004B070BD8B
:10ED700001A93000FFF772FE0128F6D0019E0023A2
:10ED8000E05E01F051F8311C00F00EFF01F02CF8AC
:10ED900028600223E05E01F047F8311C00F004FF18
:10EDA00001F022F868600423E05E01F03DF8311CB8
:10EDB00000F0FAFE01F018F8A8600020D6E710B5C0
:10EDC00000F0F4F943425841C0B210BD37B56B466C
:10EDD000DC1D0023210023700500FFF7F0FF030076
:10EDE000012805D020782B781B1A581E8341DBB2EE
:10EDF00018003EBD10B50123042904D800F021FB02
:10EE000043424341DBB2180010BD000073B5837963
:10EE10000C1C012B06D1FFF777FE01384342584105
:10EE2000C0B276BD83681D686B46DE1D310000F000
:10EE300059FA00284ED02849201C00F0EFFD002888
:10EE400035D0FE21201C890500F0E8FD002821D1E5
:10EE50002249201C00F0E2FD00281ED12049201C80
:10EE600000F0DCFD00281AD11E49201C00F0D6FD60
:10EE7000002816D11C49201C00F0D0FD002812D11A
:10EE80001A49201C00F0CAFD00280ED1124B2B603D
:10EE90000020C6E7FE239B05F9E7104BF7E7104B70
:10EEA000F5E7104BF3E7104BF1E7104BEFE7337842
:10EEB000012B05D0002B01D0022B0BD10C4BE6E728
:10EEC0000C49201C00F0AAFD002801D10A4BDEE706
:10EED000084BDCE70120A4E70000C8430000204104
:10EEE0000000C841000048420000C84200004843FA
:10EEF0000000A8440080CA440000A845020010B5E4
:10EF000093790800012B17D104290BD800F0E0FBFE
:10EF100012030C0E10000321100000F061F94342AF
:10EF20004341DBB2180010BD0421F5E70521F3E7EA
:10EF30000621F1E70221EFE793681A68012304290B
:10EF4000F0D800F0C5FB0307090B0D00054B13605B
:10EF50000023E7E7044BFAE7044BF8E7044BF6E736
:10EF6000044BF4E7000020410000C8410000484283
:10EF70000000C8420000484370B5002583790400B2
:10EF8000AB4206D083681968FFF734FE012802D12E
:10EF90000125280070BD2900200000F021F900287B
:10EFA000F6D0A571F5E770B5836804001D68FFF71A
:10EFB0000DFF012801D1012070BD2000FFF7DCFF0B
:10EFC0000128F8D0002300202B606071F4E70000D6
:10EFD00070B50326344D86B032002900040001A824
:10EFE00000F0B0FFA023E0220121DB05D2009E50FB
:10EFF000F93AFF3A99502D495E5080218904995081
:10F000002B4B2C491A682C4BC046C046C046C04604
:10F01000C046C046C046C0468A4200D0C046013BFA
:10F02000F2D102A90A00043549CD49C22B68234810
:10F0300013600022FDF7C2FA002801D0FCF7B4FCEF
:10F040002000FFF7C3FE012802D1012006B070BDE9
:10F050000121200000F00DF90028F6D00421200045
:10F0600000F0EFF90028F0D00421200000F0B8F8FB
:10F070000028EAD00121200000F05DF90028E4D04A
:10F08000A3680F4A1B6800211A602000FFF7ABFC41
:10F090000128DAD001A92000FFF755FC0128D4D0BF
:10F0A000012300206371D1E7400C020064070000D7
:10F0B0006C2000200024F400A0860100540C020003
:10F0C0000000C8420F20F0B587B01D0002ABC01889
:10F0D000402303928027A02200245B420B4303704D
:10F0E000104E114BBF04D205D750010023000094ED
:10F0F0000122EDB23000FDF783FB009522002100D4
:10F10000039B3000A025FDF77BFBED053C000028AC
:10F1100001D0FCF749FCA1230020DB00EC5007B034
:10F12000F0BDC046540C02000C0500000F20F0B5E5
:10F1300087B0039302ABC0187F23A025802700244B
:10F1400019403F3B0B4303700F4E104BBF04ED05BE
:10F1500002920100EF500122230000943000FDF7DD
:10F160004FFB6B4602991A7B300000942300FDF799
:10F1700047FB3C00002801D0FCF716FCA12300202F
:10F18000DB00EC5007B0F0BD540C02000C05000091
:10F1900010B5FFF797FF43425841C0B210BD10B5FC
:10F1A000FFF7C4FF43425841C0B210BD10B50A007A
:10F1B00001230F21FFF7ECFF431E9841C0B210BDA1
:10F1C00037B56B46DD1D0C0001232A002021FFF717
:10F1D000DFFF002803D001202B781B0923703EBDE0
:10F1E00073B56B46DC1D0E000123220020210500B3
:10F1F000FFF7CEFF00280ED00F23217836011940EB
:10F20000314321700E3B220020212800FFF7C7FF69
:10F21000431E9841C0B276BD37B56B46DD1D0C006C
:10F2200001232A002321FFF7B3FF002804D0012087
:10F230002B789B069B0F23703EBD73B56B46DC1D80
:10F240000E000123220023210500FFF7A1FF002863
:10F250000ED03023217836019943314321702F3B62
:10F26000220023212800FFF79AFF431E9841C0B2D5
:10F2700076BD73B56B46DC1D0E00012322002321F1
:10F280000500FFF785FF00280ED07F232178F601C7
:10F290001940314321707E3B220023212800FFF7D3
:10F2A0007EFF431E9841C0B276BDF7B506000F0041
:10F2B00003250024A31CDBB20193210028313A1955
:10F2C000C9B201233000FFF763FF002809D00134E1
:10F2D000019BE4B2A342F0D1013DEDB2002DE9D192
:10F2E0000120FEBDF7B56B469E1D0C0001233200C8
:10F2F00020210700FFF74CFF002801D10020FEBDB0
:10F300006B46DD1D2A00012323213800FFF740FF53
:10F310000028F3D0082233782978134004D0114212
:10F32000ECD101202070EAE7114202D023700120C5
:10F33000E5E70223FAE7F7B56B469D1D0F000123B1
:10F340002A0020210600FFF723FF002801D100201A
:10F350002EE06B46DC1D2200012323213000FFF745
:10F3600017FF0028F3D0012F23D0002F08D0022F41
:10F37000EDD108222B7893432B702378934305E03B
:10F3800008232A789A432A702278134323702A008C
:10F39000012320213000FFF702FF0028D7D00123EE
:10F3A000220023213000FFF7FAFE431E9841C0B22D
:10F3B000FEBD08222B781343DEE737B56B46DD1D13
:10F3C0000C0001232A002021FFF7E2FE002804D0D0
:10F3D000072201202B78134023703EBD73B56B4686
:10F3E000DC1D0E000123220020210500FFF7D0FEC6
:10F3F00000280ED0072321781E4099433143217005
:10F40000063B220020212800FFF7C9FE431E984139
:10F41000C0B276BD73B56B46DC1D0E000123220021
:10F4200022210500FFF7B4FE002809D001232200A5
:10F43000222128002670FFF7B2FE431E9841C0B279
:10F4400076BDF7B505000E0004292DD16B46DC1DF5
:10F45000220001232E21FFF79BFE002802D1002469
:10F460002000FEBD1F2223782E211340237022008E
:10F4700001232800FFF793FE0028F0D0012322008B
:10F4800024212800FFF784FE0028E8D040222378BA
:10F49000242193432370220001232800FFF77FFEDD
:10F4A00001240028DCD1DAE7002925D16B46DC1DD8
:10F4B000220001232421FFF76BFE0028CFD0402338
:10F4C000227824219A431343237022000123280029
:10F4D000FFF765FE0028C2D0012322002E2128005C
:10F4E000FFF756FE0028BAD01F2223782E211340A2
:10F4F000237022000123D0E701292DD16B46DC1DAA
:10F5000022000B002421FFF743FE0028A7D040274C
:10F5100023782200BB433B4323702421330028007F
:10F52000FFF73DFE00289AD0330022002E2128004C
:10F53000FFF72EFE002800D191E71F222378134009
:10F540001F432770012322002E212800FFF727FEEA
:10F55000441EA041C4B283E7022928D16B46DC1DBA
:10F56000220001232421FFF713FE002800D176E7B3
:10F570004023227824219A4313432370220001233D
:10F580002800FFF70CFE002800D168E701232200C5
:10F590002E212800FFF7FCFD002800D15FE71F2285
:10F5A00023781A4080235B4213432370CAE7012467
:10F5B000032900D054E76B46DE1D320023002421CE
:10F5C000FFF7E6FD002800D149E7402332782421E7
:10F5D0009A4313433370320023002800FFF7DFFD06
:10F5E000002800D13BE7230032002E212800FFF73E
:10F5F000CFFD002800D132E71F2233781A40402384
:10F600005B4213433370320023009DE773B56B46B2
:10F61000DD1D0C00160001232A002721FFF7B8FD8D
:10F6200000281FD0082C06D00CD8022C03D0042CA4
:10F6300001D0012C0BD12B78234211D100230120C2
:10F6400033700FE0202CF6D003D8102CF3D000201C
:10F6500008E0402CEFD0802CF9D12B787F2BEDD90E
:10F660000120307076BD73B56B46DC1D0E001500B1
:10F67000012322002F21FFF78BFD002806D0802ECA
:10F6800005D123787F2B07D90120287076BD402E25
:10F6900006D123783342F7D1002301202B70F5E700
:10F6A0000020202EF2D12378DB07F5D5ECE737B523
:10F6B0006B46DD1D0C0001232A002F21FFF768FD9A
:10F6C000002804D01F2201202B78134023703EBD58
:10F6D00002B4714649084900095C49008E4402BCE5
:10F6E0007047C04603B47146490840004900095EAE
:10F6F00049008E4403BC7047002243088B4274D3F8
:10F7000003098B425FD3030A8B4244D3030B8B4222
:10F7100028D3030C8B420DD3FF22090212BA030C2B
:10F720008B4202D31212090265D0030B8B4219D30C
:10F7300000E0090AC30B8B4201D3CB03C01A52412C
:10F74000830B8B4201D38B03C01A5241430B8B4274
:10F7500001D34B03C01A5241030B8B4201D30B035D
:10F76000C01A5241C30A8B4201D3CB02C01A524184
:10F77000830A8B4201D38B02C01A5241430A8B4247
:10F7800001D34B02C01A5241030A8B4201D30B0230
:10F79000C01A5241CDD2C3098B4201D3CB01C01A4A
:10F7A000524183098B4201D38B01C01A5241430954
:10F7B0008B4201D34B01C01A524103098B4201D342
:10F7C0000B01C01A5241C3088B4201D3CB00C01AAF
:10F7D000524183088B4201D38B00C01A5241430827
:10F7E0008B4201D34B00C01A5241411A00D201464C
:10F7F000524110467047FFE701B5002000F0F0F8D5
:10F8000002BDC0460029F7D076E7704703460B4398
:10F810007FD4002243088B4274D303098B425FD309
:10F82000030A8B4244D3030B8B4228D3030C8B4235
:10F830000DD3FF22090212BA030C8B4202D312121B
:10F84000090265D0030B8B4219D300E0090AC30BF0
:10F850008B4201D3CB03C01A5241830B8B4201D39D
:10F860008B03C01A5241430B8B4201D34B03C01A86
:10F870005241030B8B4201D30B03C01A5241C30AFE
:10F880008B4201D3CB02C01A5241830A8B4201D36F
:10F890008B02C01A5241430A8B4201D34B02C01A59
:10F8A0005241030A8B4201D30B02C01A5241CDD2FE
:10F8B000C3098B4201D3CB01C01A524183098B4249
:10F8C00001D38B01C01A524143098B4201D34B0132
:10F8D000C01A524103098B4201D30B01C01A524195
:10F8E000C3088B4201D3CB00C01A524183088B421C
:10F8F00001D38B00C01A524143088B4201D34B0005
:10F90000C01A5241411A00D2014652411046704776
:10F910005DE0CA0F00D04942031000D3404253407B
:10F9200000229C4603098B422DD3030A8B4212D33B
:10F93000FC22890112BA030A8B420CD3890192116D
:10F940008B4208D3890192118B4204D389013AD0AA
:10F95000921100E08909C3098B4201D3CB01C01A7F
:10F96000524183098B4201D38B01C01A5241430992
:10F970008B4201D34B01C01A524103098B4201D380
:10F980000B01C01A5241C3088B4201D3CB00C01AED
:10F99000524183088B4201D38B00C01A5241D9D205
:10F9A00043088B4201D34B00C01A5241411A00D286
:10F9B0000146634652415B10104601D34042002B82
:10F9C00000D54942704763465B1000D3404201B501
:10F9D000002000F005F802BD0029F8D016E77047B6
:10F9E0007047C0468446081C6146FFE71FB500F01B
:10F9F00099F8002801D40021C8421FBD10B500F0BD
:10FA00002BF84042013010BD10B500F08BF80028F3
:10FA100001DB002010BD012010BDC04610B500F074
:10FA200081F8002801DD002010BD012010BDC04676
:10FA300010B500F037F8002801DC002010BD0120CF
:10FA400010BDC04610B500F02DF8002801DA0020E6
:10FA500010BD012010BDC04670B5420045024E02E7
:10FA60004C00C30F6D0A120E760A240EC90F012036
:10FA7000FF2A06D0FF2C03D0A24201D1B54206D006
:10FA800070BD002DFCD1FF2CFAD1002EF8D18B4295
:10FA900006D00120002AF3D12800451EA841EFE737
:10FAA0000020EDE7F0B5420045024C02C30F4800CC
:10FAB0006D0A120E640A000EC90FFF2A1ED0FF281D
:10FAC00021D0002A0AD16E426E41F6B200280FD131
:10FAD000002C0DD10020002D09D005E0002801D117
:10FAE000002C01D08B4211D0012158420843F0BDB7
:10FAF000002EF7D0012001390843F8E7002DDED0B1
:10FB000002204042F3E7002CDBD0F9E78242EBDC35
:10FB100004DBA542E8D80020A542E8D20121581E06
:10FB20000843E4E7F0B542004D024C004602760A75
:10FB3000120EC30F6D0A240EC90FFF2A16D0FF2C18
:10FB400018D0002A0AD170427041C0B2002C15D0E2
:10FB5000002805D0012001390843F0BD002C13D046
:10FB6000994214D001205B421843F6E70220002E90
:10FB7000F3D1E4E70220002DEFD1E2E7002DE7D139
:10FB80000020002EE9D0EDE7002DE9D1EAE7A242FE
:10FB900006DCDFDBAE4203D80020AE42DAD3DCE77E
:10FBA000012049420843D8E7F8B557464E46454636
:10FBB000DE46E0B54702460088467F0A360EC40F8F
:10FBC000002E47D0FF2E24D0FB008027FF041F43C8
:10FBD000002399469A467F3E43465D025800DB0F5C
:10FBE0006D0A000E984643D0FF283BD0EB008025DD
:10FBF0000022ED041D437F383618731C41469B4696
:10FC00004B46614013430F2B64D875489B00C35883
:10FC10009F46002F42D108239946063BFF269A466D
:10FC2000DAE74146022A28D0032A00D1CEE0012A91
:10FC300000D0ACE0114000200022CCB24002D2053E
:10FC4000400AE407104320433CBC90469946A24634
:10FC5000AB46F8BD002F15D104239946033B00267F
:10FC60009A46B9E7FF200222002DC5D00322C3E740
:10FC7000002D19D100200122BEE70124FF220C40F3
:10FC80000020DBE7380000F01FF97626431F9F4075
:10FC900000237642361A99469A469DE70C239946E8
:10FCA000093BFF269A4697E7280000F00DF9431F0D
:10FCB0009D4076235B42181A00229DE78020002495
:10FCC000C003FF22BAE73D005246ABE73D002100EA
:10FCD0005246A7E73B0C9C462A04120C2B0C14003E
:10FCE000604665463F043F0C7C4342435D437B4393
:10FCF000270C9B18FF18BA4203D980235B029C464D
:10FD0000654424043A04240C121993015C1EA34197
:10FD10003F0C920E7D191A43AD0115432B0104D5FA
:10FD200001235E466A081D40154332007F32002AD7
:10FD300025DD6B0704D00F232B40042B00D00435A6
:10FD40002B0103D53200274B80321D40FE2A94DC64
:10FD50000124A801400AD2B20C406FE78020C00302
:10FD6000074207D0054205D128434002400A4446D5
:10FD7000FF2263E738434002400AFF225EE7012486
:10FD8000A31A1B2B05DD0C400022002056E75E461F
:10FD9000CBE72A002020DA40C31A9D402B005D1ECD
:10FDA000AB4113435A0704D00F221A40042A00D053
:10FDB00004335A0104D5012401220C4000203DE700
:10FDC00001249B01580A0C40002237E780200124BF
:10FDD000C00328434002400A0C40FF222EE7C046E1
:10FDE0005C0C0200FFFFFFF741024300C20F490A0B
:10FDF0001B0E00207E2B0DDD9D2B0CDC80200004D3
:10FE00000143952B0ADC9620C31AD9404842002AA8
:10FE100000D108007047034BD018FBE7963B994090
:10FE2000F4E7C046FFFFFF7F70B5002830D0C3174E
:10FE3000C4185C40C50F200000F046F89E231B1A32
:10FE4000962B0DDC9622D21A94402A006402640A92
:10FE5000DBB26402DB05600AD2071843104370BDB1
:10FE6000992B19DC9922D21A002A29DD944022000C
:10FE7000144C1440510704D00F210A40042A00D02A
:10FE80000434620113D4A401640ADBB22A00E0E75F
:10FE9000002200230024DCE705222100121AD140B1
:10FEA000B922D21A9440621E94410C43DAE7054B02
:10FEB0002A001C409F23A4011B1A640ADBB2C8E776
:10FEC0002200D5E7FFFFFFFB1C2101231B04984202
:10FED00001D3000C10391B0A984201D3000A0839DB
:10FEE0001B09984201D30009043902A2105C401892
:10FEF0007047C04604030202010101010000000036
:10FF000000000000044B1B681B6A002B00D1034B50
:10FF1000EC3318687047C046E81F0020D02000204E
:10FF200082B0002900D101A9101E06D0002B06D0F6
:10FF300013780B601078431E984102B0704702207E
:10FF40004042FAE7002310B59A4200D110BDCC5CC4
:10FF5000C4540133F8E700000CB430B5164B9DB023
:10FF60000C1E1D6808DA8B2301202B6040421DB057
:10FF700030BC08BC02B01847822302A99B008B81C9
:10FF80000023029008619C4200D0631E8B604B618D
:10FF900001235B42CB81209A21AB2800019300F022
:10FFA00083F8431C01DA8B232B60002CDFD0002365
:10FFB000029A1370DBE7C046E81F00200023C25CF2
:10FFC0000133002AFBD1581E70470B1E04D0FF2AB4
:10FFD00004D98A2303608B3B180070470A70012301
:10FFE000FAE70000F0B58E6885B007000C000392B8
:10FFF00001939E4239D890238A89DB001A4234D07B
:020000022000DC
:100000000325096923685B1A0293636902985D43BB
:10001000EB0F5D19019B6D1001331B18AB4200D92A
:100020001D00530532D52900380000F031FB061EB3
:1000300009D10C233B6040230120A2894042134395
:10004000A38105B0F0BD029A2169FFF77BFFA38968
:10005000144A1A4080231343A381029B2661F61899
:1000600026606561019EED1AA560019BB34200D236
:100070001E0032000399206800F0ADFAA36800204A
:100080009B1BA36023689E192660DAE72A003800CC
:1000900000F05CFB061EE0D12169380000F0AEFAEA
:1000A000C7E7C0467FFBFFFFF0B59FB00290059306
:1000B0008B890F0016001B0611D50B69002B0ED182
:1000C000402100F0E5FA38603861002805D10C23A2
:1000D000029A013813601FB0F0BD40237B610023FA
:1000E00006AD6B6120336B761033AB76340023782A
:1000F000002B47D1A31B04930DD0A31B3200390062
:100100000298FFF76FFF431C00D1B5E06A69049BBA
:10011000944663446B612378002B00D1ACE001224C
:10012000002352426A6002A95432521801342B60F3
:10013000EB60AB601370AB65584E05222178300040
:1001400000F03EFA621C002820D12968CB0604D5B5
:10015000532302AE20309B1918700B0704D553238C
:100160002B2002AE9B19187023782A2B16D0002062
:100170000A21099B2278303A092A55D9002815D03E
:10018000099313E0252BB5D00134B0E70123801B80
:100190008340296814000B432B60CDE7059B181D95
:1001A0001B680590002B39DB0993140023782E2B54
:1001B0000BD16378621C2A2B3ED1059B02341A1D99
:1001C0001B680592002B34DB0793354E2178032200
:1001D000300000F0F5F9002806D04023801B834052
:1001E0002A68013413432B60217806222D48661CAF
:1001F000297600F0E5F9002846D02B4B002B2FD1B3
:100200002968059B0722C90528D59B189343083305
:1002100005936B69039A9B186B6167E75B42EB6020
:1002200002230B432B60C0E74B4301349B18012092
:10023000A0E701235B42C7E7002314000A201A004D
:100240006B6021783039092903D9002BBDD0079282
:10025000BBE74243013452180123F2E70733D5E7E5
:1002600005AB00933A00114B2900029800E000BF53
:100270000390039B0133CCD1BB890B985B0600D460
:1002800029E70120404226E705AB00933A00074BDF
:100290002900029800F07AF8EAE7C046A70D0200AC
:1002A000AD0D0200B10D020000000000E5FF0100ED
:1002B000F7B5150001938A680B6900900C00934212
:1002C00000DA130022002B6043321278002A01D09A
:1002D00001332B6023689B0602D52B6802332B6009
:1002E000062723681F4027D0230043331B785A1E5C
:1002F00093412268920630D422000199433200983B
:10030000089EB047431C25D0062320682A68E16870
:1003100003400025042B03D18D1AEB43DB171D404E
:10032000A3682269934201DD9B1AED180027BD42A4
:1003300020D1002010E00137E3682A689B1A9F4211
:10034000D2DA22000123193201990098089EB047A1
:10035000431CF0D101204042FEBD3020E118433162
:10036000087021005A1C45310978A2184332023323
:100370001170C1E7220001231A3201990098089EEA
:10038000B047431CE6D00137D1E70000F0B58BB091
:1003900006920A0043320793059004920A7E0C00ED
:1003A000109B6E2A00D18FE017D8632A2CD008D872
:1003B000002A00D199E0582A54D0260042363270E3
:1003C00029E0642A01D0692AF7D121681A68080651
:1003D00023D5111D1960156825E0732A00D188E026
:1003E00008D86F2A29D0702AE7D1202209680A4349
:1003F000226003E0752A20D0782ADED122007821FD
:10040000453211706C4A30E00E001A684236111DF8
:10041000196013683370012379E04906D9D5111D9D
:1004200019600023D55E002D03DA2D23049A6D4256
:100430001370624B0A2703932FE0206819680506A2
:1004400003D5081D18600D6805E04006F9D50D6854
:10045000081D1860ADB2594B082703936F2A18D0B6
:100460000A2716E045310A70544A03921A68216837
:10047000101D18601568080622D5CB0702D5202369
:10048000194321601027002D03D1202322689A43AD
:1004900022602300002243331A706368A360002B9C
:1004A0005CDB0422216891432160002D58D1049E19
:1004B000002B64D02600039B42361B7833705EE02D
:1004C0004806DAD5ADB2D8E709681A68080605D536
:1004D000111D1960136862691A6006E04906F7D5B4
:1004E000111D19601368A28A1A800023049E2361DB
:1004F00054E01A68111D1960166800216268300006
:1005000000F05EF8002801D0801B60606368236102
:100510000023049A137041E023693200069905987C
:10052000079DA847431C43D0236800259B070FD491
:10053000099BE06898423DDA18003BE02200012365
:10054000193206990598079EB047431C30D00135F3
:10055000E368099A9B1A9D42F0DBE9E7002DA9D0D8
:10056000049E28003900FFF74DF9039B013E5B5CB8
:10057000280033703900FFF7BFF8051EF1D1082FAE
:1005800009D12368DB0706D563682269934202DC40
:100590003023013E3370049B9B1B2361079B09AAF8
:1005A00000932100069B0598FFF782FE431CB3D100
:1005B000012040420BB0F0BDC90D0200B80D020091
:1005C000C9B28218904201D10020704703788B4253
:1005D000FBD00130F6E710B5884202D98B1898425B
:1005E00008D300239A4207D0CC5CC4540133F9E706
:1005F0008B5C8354013AFBD210BD000070B505003E
:10060000002910D00C1F2368002B00DAE418280002
:1006100000F0D4F81D4A1368002B05D16360146004
:10062000280000F0CCF870BDA34209D921686018F9
:100630008342F3D118685B6841182160EEE713002C
:100640005A68002A01D0A242F9D919685818A04264
:100650000BD120680918581819608242E0D110683F
:100660005268411819605A60DAE7A04202D90C2397
:100670002B60D5E721686018824203D11068526868
:100680004118216062605C60CAE7C046442D0020CA
:10069000032370B5CD1C9D43083506000C2D1ED2DA
:1006A0000C25A9421DD8300000F088F8254A1468AE
:1006B0002100002919D1244C2368002B03D13000DC
:1006C00000F06AF820602900300000F065F8431C53
:1006D0002CD10C233000336000F071F803E0002DC2
:1006E000DFDA0C233360002070BD0B685B1B1AD46B
:1006F0000B2B03D90B60CC18256003E08C420ED184
:1007000063681360300000F05AF8200007220B30B5
:10071000231D9043C31AE7D05A42E250E4E74B68E6
:1007200063600C00EEE70C004968C2E70323C41CB9
:100730009C43A042E0D0211A300000F02DF8431C69
:10074000DAD1C6E7442D0020482D0020F8B5070077
:100750000D001600002905D11100FFF799FF0400D4
:100760002000F8BD002A03D1FFF748FF3400F7E767
:1007700000F026F82C008642F2D931003800FFF74D
:1007800087FF041EECD029003200FFF7DBFB2900B5
:100790003800FFF733FFE3E7002370B5064C050090
:1007A0000800236000F014F8431C03D12368002BD9
:1007B00000D02B6070BDC046942D0020704770475C
:1007C0000B1F1B68181F002B01DA0B58C01870474D
:1007D000044A1368002B03D01818106018007047E3
:1007E000014BF9E74C2D0020982D0020F8B5C046AC
:1007F000F8BC08BC9E467047F8B5C046F8BC08BCBB
:100800009E467047EC1F0020FFFFFFFFFFFFFFFF2A
:10081000FFFFFFFFFFFFFFFF0000000000000000E0
:1008200000E0D701030000005B253038645D004F15
:10083000766572666C6F770D0A004150505F4552C5
:10084000524F523A4552524F523A466174616C0DC2
:100850000A003A494E464F3A0D0A0D0A0D0A0D0A92
:100860002D2D2D2D2D2D2D2D2D2D2D2D2D2D2D2DB8
:100870002D2D2D2D2D2D2D2D2D2D2D2D2D2D2D2DA8
:100880002D2D2D2D2D2D2D2D2D2D2D2D2D2D2D0DB8
:100890000A003A494E464F3A424C45204265616350
:1008A0006F6E20737461727465640D0A0061636316
:1008B000656C65726F6D657465725F696E697400F1
:1008C0003A44454255473A416363656C20583A259E
:1008D0006420593A2564205A3A25640D0A003A49A1
:1008E0004E464F3A25730D0A003A4552524F523A3E
:1008F0004C495332444831325F5365744D6F6465DF
:100900000000000084290020626C655F6576745FDA
:10091000646973706174636800626C655F737461AD
:10092000636B5F696E6974006761705F70617261AB
:100930006D735F696E697400616476657274697362
:10094000696E675F696E697400676174745F696E70
:100950006974006164766572746973696E675F7348
:10096000746172740073657276696365735F696E32
:100970006974006F6E5F6164765F657674003A49F2
:100980004E464F3A25733A5B25785D0D0A00546850
:1009900065736973003A494E464F3A25733A0D0A1A
:1009A000003A494E464F3A46617374204164766579
:1009B00072746973696E670D0A003A494E464F3A80
:1009C000436F6E6E65637465640D0A003A494E4666
:1009D0004F3A446973636F6E6E65637465642C206F
:1009E000726561736F6E2025640D0A003A444542BA
:1009F00055473A4741545420436C69656E742054FE
:100A0000696D656F75742E0D0A003A44454255476D
:100A10003A47415454205365727665722054696D8B
:100A2000656F75742E0D0A00736569736D69635F78
:100A30006163635F64657420637573746F6D5F7366
:100A40006572766963655F696E6974006F6E5F6376
:100A50006F6E6E656374006F6E5F646973636F6E53
:100A60006E656374006F6E5F626C655F7772697448
:100A700065006F6E5F687663006E6F746966795F9C
:100A8000616363656C5F64617461006F7074696F4A
:100A90006E00416363656C65726F6D65746572208D
:100AA00064617461003A44454255473A25730D0A22
:100AB000003A44454255473A437573746F6D20536D
:100AC0006572766963653A206D5F636861725F681D
